{
  "contractName": "JurStatus",
  "abi": [
    {
      "inputs": [],
      "payable": false,
      "stateMutability": "nonpayable",
      "type": "constructor"
    },
    {
      "anonymous": false,
      "inputs": [
        {
          "indexed": false,
          "internalType": "address",
          "name": "statusHolder",
          "type": "address"
        },
        {
          "indexed": false,
          "internalType": "bool",
          "name": "newState",
          "type": "bool"
        },
        {
          "indexed": false,
          "internalType": "uint256",
          "name": "timestamp",
          "type": "uint256"
        }
      ],
      "name": "StateChanged",
      "type": "event"
    },
    {
      "anonymous": false,
      "inputs": [
        {
          "indexed": false,
          "internalType": "address",
          "name": "statusHolder",
          "type": "address"
        },
        {
          "indexed": false,
          "internalType": "uint256",
          "name": "activationTime",
          "type": "uint256"
        },
        {
          "indexed": false,
          "internalType": "string",
          "name": "statusType",
          "type": "string"
        }
      ],
      "name": "StatusAdded",
      "type": "event"
    },
    {
      "constant": true,
      "inputs": [
        {
          "internalType": "uint256",
          "name": "",
          "type": "uint256"
        }
      ],
      "name": "addresses",
      "outputs": [
        {
          "internalType": "address",
          "name": "",
          "type": "address"
        }
      ],
      "payable": false,
      "stateMutability": "view",
      "type": "function"
    },
    {
      "constant": true,
      "inputs": [
        {
          "internalType": "address",
          "name": "",
          "type": "address"
        }
      ],
      "name": "status",
      "outputs": [
        {
          "internalType": "uint256",
          "name": "activationTime",
          "type": "uint256"
        },
        {
          "internalType": "bool",
          "name": "isActive",
          "type": "bool"
        },
        {
          "internalType": "string",
          "name": "statusType",
          "type": "string"
        }
      ],
      "payable": false,
      "stateMutability": "view",
      "type": "function"
    },
    {
      "constant": true,
      "inputs": [],
      "name": "statusCount",
      "outputs": [
        {
          "internalType": "uint256",
          "name": "",
          "type": "uint256"
        }
      ],
      "payable": false,
      "stateMutability": "view",
      "type": "function"
    },
    {
      "constant": true,
      "inputs": [
        {
          "internalType": "uint256",
          "name": "",
          "type": "uint256"
        }
      ],
      "name": "statusTypes",
      "outputs": [
        {
          "internalType": "string",
          "name": "",
          "type": "string"
        }
      ],
      "payable": false,
      "stateMutability": "view",
      "type": "function"
    },
    {
      "constant": true,
      "inputs": [],
      "name": "statusTypesCount",
      "outputs": [
        {
          "internalType": "uint256",
          "name": "",
          "type": "uint256"
        }
      ],
      "payable": false,
      "stateMutability": "view",
      "type": "function"
    },
    {
      "constant": false,
      "inputs": [
        {
          "internalType": "address",
          "name": "_statusHolder",
          "type": "address"
        },
        {
          "internalType": "uint256",
          "name": "_statusType",
          "type": "uint256"
        }
      ],
      "name": "addJurStatus",
      "outputs": [],
      "payable": false,
      "stateMutability": "nonpayable",
      "type": "function"
    },
    {
      "constant": false,
      "inputs": [
        {
          "internalType": "address",
          "name": "_statusHolder",
          "type": "address"
        },
        {
          "internalType": "bool",
          "name": "_newState",
          "type": "bool"
        }
      ],
      "name": "changeState",
      "outputs": [],
      "payable": false,
      "stateMutability": "nonpayable",
      "type": "function"
    },
    {
      "constant": false,
      "inputs": [
        {
          "internalType": "string",
          "name": "_statusType",
          "type": "string"
        }
      ],
      "name": "addStatusType",
      "outputs": [],
      "payable": false,
      "stateMutability": "nonpayable",
      "type": "function"
    }
  ],
  "bytecode": "0x608060405234801561001057600080fd5b50600080546001600160a01b03191633179055610b8f806100326000396000f3fe608060405234801561001057600080fd5b50600436106100885760003560e01c8063645b8b1b1161005b578063645b8b1b1461010b578063b57bb11d146101bb578063eccc2cba14610261578063edf26d9b146102f357610088565b80630d062d331461008d57806311d92010146100bd57806337cb4e2c146100e957806343d3995614610103575b600080fd5b6100bb600480360360408110156100a357600080fd5b506001600160a01b038135169060200135151561032c565b005b6100bb600480360360408110156100d357600080fd5b506001600160a01b038135169060200135610513565b6100f1610809565b60408051918252519081900360200190f35b6100f161080f565b6101316004803603602081101561012157600080fd5b50356001600160a01b0316610815565b604051808481526020018315151515815260200180602001828103825283818151815260200191508051906020019080838360005b8381101561017e578181015183820152602001610166565b50505050905090810190601f1680156101ab5780820380516001836020036101000a031916815260200191505b5094505050505060405180910390f35b6100bb600480360360208110156101d157600080fd5b8101906020810181356401000000008111156101ec57600080fd5b8201836020820111156101fe57600080fd5b8035906020019184600183028401116401000000008311171561022057600080fd5b91908080601f0160208091040260200160405190810160405280939291908181526020018383808284376000920191909152509295506108c5945050505050565b61027e6004803603602081101561027757600080fd5b50356109a9565b6040805160208082528351818301528351919283929083019185019080838360005b838110156102b85781810151838201526020016102a0565b50505050905090810190601f1680156102e55780820380516001836020036101000a031916815260200191505b509250505060405180910390f35b6103106004803603602081101561030957600080fd5b5035610a4f565b604080516001600160a01b039092168252519081900360200190f35b6000546001600160a01b03163314610381576040805162461bcd60e51b815260206004820152601360248201527220b1b1b2b9b9903737ba1033b930b73a32b21760691b604482015290519081900360640190fd5b6001600160a01b0382166103dc576040805162461bcd60e51b815260206004820152601e60248201527f506c6561652070726f7669646520612076616c696420616464726573732e0000604482015290519081900360640190fd5b6001600160a01b0382166000908152600360205260409020546104305760405162461bcd60e51b8152600401808060200182810382526023815260200180610b386023913960400191505060405180910390fd5b6001600160a01b03821660009081526003602052604090206001015460ff16151581151514156104a7576040805162461bcd60e51b815260206004820152601d60248201527f416c726561647920696e207468652073696d696c61722073746174652e000000604482015290519081900360640190fd5b6001600160a01b038216600081815260036020908152604091829020600101805485151560ff1990911681179091558251938452908301524282820152517fb965fe859adbfcaf277bb9d21a5de534aa40f5a06a58dbf224de25d789b063a99181900360600190a15050565b6000546001600160a01b03163314610568576040805162461bcd60e51b815260206004820152601360248201527220b1b1b2b9b9903737ba1033b930b73a32b21760691b604482015290519081900360640190fd5b6001600160a01b0382166105c3576040805162461bcd60e51b815260206004820152601f60248201527f506c656173652070726f7669646520612076616c696420616464726573732e00604482015290519081900360640190fd5b6040518060600160405280428152602001600115158152602001600183815481106105ea57fe5b600091825260209182902001805460408051601f60026000196101006001871615020190941693909304928301859004850281018501909152818152928301828280156106785780601f1061064d57610100808354040283529160200191610678565b820191906000526020600020905b81548152906001019060200180831161065b57829003601f168201915b5050509190925250506001600160a01b038316600090815260036020908152604091829020835181558382015160018201805460ff19169115159190911790559183015180516106ce9260028501920190610a76565b505060028054600180820183556000929092527f405787fa12a823e0f2b7631cc41b3ba8828b3321ca811111fa75cd3aa3bb5ace0180546001600160a01b0319166001600160a01b038616179055600480548201905580547fc4d9fcc4d32e8979ac4dd0d6eebc63fbf139c5419a5184ec6cf7b2d0f876024b9250849142918590811061075757fe5b6000918252602091829020604080516001600160a01b038716815293840185905260609084018181529190920180546002600019610100600184161502019091160492840183905292916080830190849080156107f55780601f106107ca576101008083540402835291602001916107f5565b820191906000526020600020905b8154815290600101906020018083116107d857829003601f168201915b505094505050505060405180910390a15050565b60045481565b60055481565b60036020908152600091825260409182902080546001808301546002808501805488516101009582161595909502600019011691909104601f8101879004870284018701909752868352929560ff909116949192918301828280156108bb5780601f10610890576101008083540402835291602001916108bb565b820191906000526020600020905b81548152906001019060200180831161089e57829003601f168201915b5050505050905083565b6000546001600160a01b0316331461091a576040805162461bcd60e51b815260206004820152601360248201527220b1b1b2b9b9903737ba1033b930b73a32b21760691b604482015290519081900360640190fd5b80516109575760405162461bcd60e51b8152600401808060200182810382526026815260200180610b126026913960400191505060405180910390fd5b600580546001908101909155805480820180835560009290925282516109a4917fb10e2d527612073b26eecdfd717e6a320cf44b4afac2b0732d9fcbe2b7fa0cf601906020850190610a76565b505050565b600181815481106109b657fe5b600091825260209182902001805460408051601f6002600019610100600187161502019094169390930492830185900485028101850190915281815293509091830182828015610a475780601f10610a1c57610100808354040283529160200191610a47565b820191906000526020600020905b815481529060010190602001808311610a2a57829003601f168201915b505050505081565b60028181548110610a5c57fe5b6000918252602090912001546001600160a01b0316905081565b828054600181600116156101000203166002900490600052602060002090601f016020900481019282601f10610ab757805160ff1916838001178555610ae4565b82800160010185558215610ae4579182015b82811115610ae4578251825591602001919060010190610ac9565b50610af0929150610af4565b5090565b610b0e91905b80821115610af05760008155600101610afa565b9056fe53746174757320747970652063616e6e6f7420626520616e20656d70747920737472696e672e41646472657373206973206e6f742061204a75722053746174757320686f6c6465722ea265627a7a72315820d57d7c1d8d747fc2e60baee9970afeafff4fa2dc27c776c144c92ba2a28b99a964736f6c634300050c0032",
  "source": "pragma solidity >=0.5.1 <0.7.0;\r\n\r\ncontract JurStatus {\r\n    /** The Jur admin address */\r\n    address owner;\r\n\r\n    /**\r\n    Struct defining the values of a status.\r\n    activationTime - The timestamp from which the status will be valid\r\n    isActive - booleans state depicting if a status is currently valid\r\n    statusType - The type of the status complementing the bussiness logic\r\n    */\r\n    struct Status {\r\n        uint activationTime;\r\n        bool isActive;\r\n        string statusType;\r\n    }\r\n\r\n    /** Dynamic array holding the status types */\r\n    string[] public statusTypes;\r\n\r\n    /** Dynamic array holding the addresses */\r\n    address[] public addresses;\r\n    /** Mapping between the address of the Jur Status holders and their properties */\r\n    mapping(address  => Status) public status;\r\n\r\n    /** Total count of Jur Statuses. */\r\n    uint public statusCount;\r\n    /** Total count of Jur Status Types **/\r\n    uint public statusTypesCount;\r\n\r\n    event StateChanged(address statusHolder, bool newState, uint timestamp);\r\n    event StatusAdded(address statusHolder, uint activationTime, string statusType);\r\n\r\n    modifier onlyOwner() {\r\n        require(msg.sender == owner, \"Access not granted.\");\r\n        _;\r\n    }\r\n\r\n    constructor()\r\n    public {\r\n        owner = msg.sender;\r\n    }\r\n\r\n    /**\r\n    @dev addJurStatus - function to let the Jur admin add new address as a Jur Status, thus\r\n    validating it's license which can be verified on the blockchain.\r\n    @param _statusHolder - The address which will hold the Jur Status.\r\n    @param _statusType - The position of the value from the statusTypes array signifying the\r\n    status type.\r\n    */\r\n    function addJurStatus(\r\n    address _statusHolder,\r\n    uint _statusType\r\n    ) public\r\n    onlyOwner {\r\n        require(_statusHolder != address(0), \"Please provide a valid address.\");\r\n        status[_statusHolder] = Status(now, true, statusTypes[_statusType]);\r\n        addresses.push(_statusHolder);\r\n        statusCount++;\r\n\r\n        emit StatusAdded(_statusHolder, now, statusTypes[_statusType]);\r\n    }\r\n\r\n    /**\r\n    @dev changeState - function to let the Jur admin change the state of a status.\r\n    @param _statusHolder - The address holding the Jur Status.\r\n    @param _newState -  Boolean status to update.\r\n    */\r\n    function changeState(\r\n    address _statusHolder,\r\n    bool _newState\r\n    ) public\r\n    onlyOwner {\r\n        require(_statusHolder != address(0), \"Pleae provide a valid address.\");\r\n        require(status[_statusHolder].activationTime != 0, \"Address is not a Jur Status holder.\");\r\n        require(status[_statusHolder].isActive != _newState, \"Already in the similar state.\");\r\n        status[_statusHolder].isActive = _newState;\r\n\r\n        emit StateChanged(_statusHolder, _newState, now);\r\n    }\r\n\r\n    /**\r\n    @dev addStatusType - function to let an admin add status types to support the bussiness\r\n    logic.\r\n    @param _statusType - The new status type.\r\n    */\r\n    function addStatusType(\r\n    string memory _statusType\r\n    ) public\r\n    onlyOwner {\r\n        require(bytes(_statusType).length != 0, \"Status type cannot be an empty string.\");\r\n        statusTypesCount++;\r\n        statusTypes.push(_statusType);\r\n    }\r\n}\r\n",
  "sourcePath": "c:/projects/jur-assessment/contracts/JurStatus.sol",
  "compiler": {
    "name": "solc",
    "version": "0.5.12+commit.7709ece9.Emscripten.clang"
  },
  "schemaVersion": "3.0.20",
  "updatedAt": "2020-01-11T20:29:25.249Z",
  "devdoc": {
    "methods": {
      "addJurStatus(address,uint256)": {
        "details": "addJurStatus - function to let the Jur admin add new address as a Jur Status, thus validating it's license which can be verified on the blockchain.",
        "params": {
          "_statusHolder": "- The address which will hold the Jur Status.",
          "_statusType": "- The position of the value from the statusTypes array signifying the status type."
        }
      },
      "addStatusType(string)": {
        "details": "addStatusType - function to let an admin add status types to support the bussiness logic.",
        "params": {
          "_statusType": "- The new status type."
        }
      },
      "changeState(address,bool)": {
        "details": "changeState - function to let the Jur admin change the state of a status.",
        "params": {
          "_newState": "-  Boolean status to update.",
          "_statusHolder": "- The address holding the Jur Status."
        }
      }
    }
  },
  "userdoc": {
    "methods": {}
  }
}